{
  "contractName": "Lottery",
  "abi": [
    {
      "inputs": [],
      "stateMutability": "nonpayable",
      "type": "constructor"
    },
    {
      "inputs": [],
      "name": "Manager",
      "outputs": [
        {
          "internalType": "address",
          "name": "",
          "type": "address"
        }
      ],
      "stateMutability": "view",
      "type": "function",
      "constant": true
    },
    {
      "inputs": [
        {
          "internalType": "uint256",
          "name": "",
          "type": "uint256"
        }
      ],
      "name": "Players",
      "outputs": [
        {
          "internalType": "address payable",
          "name": "",
          "type": "address"
        }
      ],
      "stateMutability": "view",
      "type": "function",
      "constant": true
    },
    {
      "inputs": [],
      "name": "Winner",
      "outputs": [
        {
          "internalType": "address payable",
          "name": "",
          "type": "address"
        }
      ],
      "stateMutability": "view",
      "type": "function",
      "constant": true
    },
    {
      "stateMutability": "payable",
      "type": "receive",
      "payable": true
    },
    {
      "inputs": [],
      "name": "GetBalance",
      "outputs": [
        {
          "internalType": "uint256",
          "name": "",
          "type": "uint256"
        }
      ],
      "stateMutability": "view",
      "type": "function",
      "constant": true
    },
    {
      "inputs": [],
      "name": "PickWinner",
      "outputs": [],
      "stateMutability": "nonpayable",
      "type": "function"
    },
    {
      "inputs": [],
      "name": "GetPlayers",
      "outputs": [
        {
          "internalType": "address payable[]",
          "name": "",
          "type": "address[]"
        }
      ],
      "stateMutability": "view",
      "type": "function",
      "constant": true
    }
  ],
  "bytecode": "0x608060405234801561001057600080fd5b50336000806101000a81548173ffffffffffffffffffffffffffffffffffffffff021916908373ffffffffffffffffffffffffffffffffffffffff160217905550610d41806100606000396000f3fe6080604052600436106100595760003560e01c806348ef3f03146101275780636e5485cb1461016457806378357e531461018f578063b2b98ed2146101ba578063b7d2c654146101e5578063f8f8a912146101fc57610122565b3661012257670de0b6b3a76400003410156100a9576040517f08c379a00000000000000000000000000000000000000000000000000000000081526004016100a09061080a565b60405180910390fd5b600015156100b5610227565b151503610120576001339080600181540180825580915050600190039060005260206000200160009091909190916101000a81548173ffffffffffffffffffffffffffffffffffffffff021916908373ffffffffffffffffffffffffffffffffffffffff1602179055505b005b600080fd5b34801561013357600080fd5b5061014e60048036038101906101499190610865565b6102d3565b60405161015b91906108d3565b60405180910390f35b34801561017057600080fd5b50610179610312565b60405161018691906109ac565b60405180910390f35b34801561019b57600080fd5b506101a46103a0565b6040516101b191906109ef565b60405180910390f35b3480156101c657600080fd5b506101cf6103c4565b6040516101dc91906108d3565b60405180910390f35b3480156101f157600080fd5b506101fa6103ea565b005b34801561020857600080fd5b50610211610635565b60405161021e9190610a19565b60405180910390f35b600080600090505b6001805490508110156102ca573373ffffffffffffffffffffffffffffffffffffffff166001828154811061026757610266610a34565b5b9060005260206000200160009054906101000a900473ffffffffffffffffffffffffffffffffffffffff1673ffffffffffffffffffffffffffffffffffffffff16036102b75760019150506102d0565b80806102c290610a92565b91505061022f565b50600090505b90565b600181815481106102e357600080fd5b906000526020600020016000915054906101000a900473ffffffffffffffffffffffffffffffffffffffff1681565b6060600180548060200260200160405190810160405280929190818152602001828054801561039657602002820191906000526020600020905b8160009054906101000a900473ffffffffffffffffffffffffffffffffffffffff1673ffffffffffffffffffffffffffffffffffffffff168152602001906001019080831161034c575b5050505050905090565b60008054906101000a900473ffffffffffffffffffffffffffffffffffffffff1681565b600260009054906101000a900473ffffffffffffffffffffffffffffffffffffffff1681565b60008054906101000a900473ffffffffffffffffffffffffffffffffffffffff1673ffffffffffffffffffffffffffffffffffffffff163373ffffffffffffffffffffffffffffffffffffffff1614610478576040517f08c379a000000000000000000000000000000000000000000000000000000000815260040161046f90610b26565b60405180910390fd5b600360018054905010156104c1576040517f08c379a00000000000000000000000000000000000000000000000000000000081526004016104b890610b92565b60405180910390fd5b60006104cb6106cc565b90506000600180549050826104e09190610be1565b9050600181815481106104f6576104f5610a34565b5b9060005260206000200160009054906101000a900473ffffffffffffffffffffffffffffffffffffffff16600260006101000a81548173ffffffffffffffffffffffffffffffffffffffff021916908373ffffffffffffffffffffffffffffffffffffffff160217905550600260009054906101000a900473ffffffffffffffffffffffffffffffffffffffff1673ffffffffffffffffffffffffffffffffffffffff166108fc6105a5610635565b9081150290604051600060405180830381858888f193505050501580156105d0573d6000803e3d6000fd5b50600067ffffffffffffffff8111156105ec576105eb610c12565b5b60405190808252806020026020018201604052801561061a5781602001602082028036833780820191505090505b5060019080519060200190610630929190610706565b505050565b60008060009054906101000a900473ffffffffffffffffffffffffffffffffffffffff1673ffffffffffffffffffffffffffffffffffffffff163373ffffffffffffffffffffffffffffffffffffffff16146106c6576040517f08c379a00000000000000000000000000000000000000000000000000000000081526004016106bd90610c8d565b60405180910390fd5b47905090565b600043426001805490506040516020016106e893929190610cce565b6040516020818303038152906040528051906020012060001c905090565b82805482825590600052602060002090810192821561077f579160200282015b8281111561077e5782518260006101000a81548173ffffffffffffffffffffffffffffffffffffffff021916908373ffffffffffffffffffffffffffffffffffffffff16021790555091602001919060010190610726565b5b50905061078c9190610790565b5090565b5b808211156107a9576000816000905550600101610791565b5090565b600082825260208201905092915050565b7f4f6e6c79203120457468657220697320416c6c6f776564000000000000000000600082015250565b60006107f46017836107ad565b91506107ff826107be565b602082019050919050565b60006020820190508181036000830152610823816107e7565b9050919050565b600080fd5b6000819050919050565b6108428161082f565b811461084d57600080fd5b50565b60008135905061085f81610839565b92915050565b60006020828403121561087b5761087a61082a565b5b600061088984828501610850565b91505092915050565b600073ffffffffffffffffffffffffffffffffffffffff82169050919050565b60006108bd82610892565b9050919050565b6108cd816108b2565b82525050565b60006020820190506108e860008301846108c4565b92915050565b600081519050919050565b600082825260208201905092915050565b6000819050602082019050919050565b610923816108b2565b82525050565b6000610935838361091a565b60208301905092915050565b6000602082019050919050565b6000610959826108ee565b61096381856108f9565b935061096e8361090a565b8060005b8381101561099f5781516109868882610929565b975061099183610941565b925050600181019050610972565b5085935050505092915050565b600060208201905081810360008301526109c6818461094e565b905092915050565b60006109d982610892565b9050919050565b6109e9816109ce565b82525050565b6000602082019050610a0460008301846109e0565b92915050565b610a138161082f565b82525050565b6000602082019050610a2e6000830184610a0a565b92915050565b7f4e487b7100000000000000000000000000000000000000000000000000000000600052603260045260246000fd5b7f4e487b7100000000000000000000000000000000000000000000000000000000600052601160045260246000fd5b6000610a9d8261082f565b91507fffffffffffffffffffffffffffffffffffffffffffffffffffffffffffffffff8203610acf57610ace610a63565b5b600182019050919050565b7f4f6e6c79204d616e616765722043616e205069636b2057696e6e657200000000600082015250565b6000610b10601c836107ad565b9150610b1b82610ada565b602082019050919050565b60006020820190508181036000830152610b3f81610b03565b9050919050565b7f4e6f7420456e6f75676820506c61796572730000000000000000000000000000600082015250565b6000610b7c6012836107ad565b9150610b8782610b46565b602082019050919050565b60006020820190508181036000830152610bab81610b6f565b9050919050565b7f4e487b7100000000000000000000000000000000000000000000000000000000600052601260045260246000fd5b6000610bec8261082f565b9150610bf78361082f565b925082610c0757610c06610bb2565b5b828206905092915050565b7f4e487b7100000000000000000000000000000000000000000000000000000000600052604160045260246000fd5b7f4f6e6c79204d616e616765722043616e20436865636b2042616c616e63650000600082015250565b6000610c77601e836107ad565b9150610c8282610c41565b602082019050919050565b60006020820190508181036000830152610ca681610c6a565b9050919050565b6000819050919050565b610cc8610cc38261082f565b610cad565b82525050565b6000610cda8286610cb7565b602082019150610cea8285610cb7565b602082019150610cfa8284610cb7565b60208201915081905094935050505056fea26469706673582212201e31efd3f31d916d68e4703fdded9aa06d816c673a1a07ea9532150956f92cec64736f6c63430008120033",
  "immutableReferences": {},
  "source": "// SPDX-License-Identifier: MIT\r\npragma solidity >=0.8.15 <=0.9.0;\r\n\r\ncontract Lottery {\r\n    address public Manager;\r\n    address payable[] public Players;\r\n    address payable public Winner;\r\n\r\n    constructor() {\r\n        Manager = msg.sender;\r\n    }\r\n\r\n    function CheckDup() private view returns (bool) {\r\n        for (uint i = 0; i < Players.length; i++) {\r\n            if (Players[i] == msg.sender) {\r\n                return true;\r\n            }\r\n        }\r\n        return false;\r\n    }\r\n\r\n    receive() external payable {\r\n        require(msg.value >= 1 ether, \"Only 1 Ether is Allowed\");\r\n        if (CheckDup() == false) {\r\n            Players.push(payable(msg.sender));\r\n        }\r\n    }\r\n\r\n    function GetBalance() public view returns (uint) {\r\n        require(msg.sender == Manager, \"Only Manager Can Check Balance\");\r\n        return address(this).balance;\r\n    }\r\n\r\n    function Random() internal view returns (uint) {\r\n        return\r\n            uint(\r\n                keccak256(\r\n                    abi.encodePacked(\r\n                        block.number,\r\n                        block.timestamp,\r\n                        Players.length\r\n                    )\r\n                )\r\n            );\r\n    }\r\n\r\n    function PickWinner() public {\r\n        require(msg.sender == Manager, \"Only Manager Can Pick Winner\");\r\n        require(Players.length >= 3, \"Not Enough Players\");\r\n        uint R = Random();\r\n        uint Index = R % Players.length;\r\n        Winner = Players[Index];\r\n        Winner.transfer(GetBalance());\r\n        Players = new address payable[](0);\r\n    }\r\n\r\n    function GetPlayers() public view returns (address payable[] memory) {\r\n        return Players;\r\n    }\r\n}\r\n",
  "sourcePath": "C:\\Users\\Zubair Gujjar\\Desktop\\Blockchain Coding\\contracts\\Lottery.sol",
  "compiler": {
    "name": "solc",
    "version": "0.8.18+commit.87f61d96.Emscripten.clang"
  },
  "schemaVersion": "3.4.14",
  "updatedAt": "2023-07-14T07:06:17.831Z",
  "networkType": "ethereum",
  "devdoc": {
    "kind": "dev",
    "methods": {},
    "version": 1
  },
  "userdoc": {
    "kind": "user",
    "methods": {},
    "version": 1
  }
}